:0200000480007A
:10000000971200009382829973905230AD4273B080
:10001000023085629B82828873B04230B72F000C19
:10002000137E0E00130E0E002380CF01A380CF019C
:100030002381CF01A381CF01B70F000C137E0E00E7
:100040002380CF01A380CF012381CF01A381CF01E2
:100050008140014181410142814201438143014488
:100060008144014581450146814601478147014858
:10007000814801498149014A814A014B814B014C28
:10008000814C014D814D014E814E014F814F975161
:1000900000009381A17317D500001305A5FE9755A5
:1000A000010093856588014610C16374B500110590
:1000B000E5BF138501899385818A014610C1637468
:1000C000B5001105E5BF170100081301A1B31752D0
:1000D000010013029289137202FC6F20000D01A02F
:1000E000011106EC22E80010B707B0002326F4FE49
:1000F000233004FE0145EF00A011EF00E025EF00E2
:10010000207E1305800CEF00101317450000130527
:1001100065E9EF10A051EF0040378327C4FE3E850C
:10012000EF004075EF00607717450000130585E884
:10013000EF10C04F97570000938747F49C431B87ED
:1001400007008327C4FEBA853E85EF0080588327C9
:10015000C4FE91272326F4FE17450000130505E78A
:10016000EF10C04C232404FEB1A81305800CEF004F
:10017000900C832784FE85278127175700001307DB
:10018000E7EF8A07BA979C431B8707008327C4FEC3
:10019000BA853E85EF00E0538327C4FE91272326CE
:1001A000F4FE832784FE93F7F71F812799E717450D
:1001B00000001305A5E2EF106047832784FE852722
:1001C0002324F4FE97570000938747EB9843832737
:1001D00084FEE3ECE7F8174500001305A5E0EF10F7
:1001E000E04417450000130565E1EF10204402903C
:1001F0000100E260426405618280411106E422E070
:100200000008EFF0FFED0100A2600264410182806E
:10021000011122EC0010AA872326F4FE0327C4FE56
:10022000B7070200B99F81273E8797570000938741
:1002300067DA98E30327C4FEB70702009127B99F46
:1002400081273E879387018198E30327C4FEB70780
:100250000200A127B99F81273E879387818198E378
:100260000327C4FEB7070200B127B99F81273E8745
:100270009387018298E30327C4FEB7070200C127D2
:10028000B99F81273E879387818298E30327C4FE25
:10029000B7070200D127B99F81273E879387018343
:1002A00098E30327C4FEB7070200E127B99F81271F
:1002B0003E879387818398E30327C4FEB707020034
:1002C000F127B99F81273E879387018498E303270D
:1002D000C4FEB70702009B870702B99F81273E87AC
:1002E0009387818498E30327C4FEB70702009B87A6
:1002F0004702B99F81273E879387018598E30327AB
:10030000C4FEB70702009B878702B99F81273E87FB
:100310009387818598E30100626405618280011101
:1003200022EC00102334A4FEAE872322F4FE833790
:1003300084FE032744FE98C3010062640561828045
:10034000011122EC00102334A4FE833784FE9C4369
:100350003E85626405618280411106E422E0000866
:1003600097570000938707C79C639305B0033E85AA
:10037000EFF0FFFA0100A2600264410182804111A6
:1003800006E422E00008938701819C63C1653E85F5
:10039000EFF0FFF80100A260026441018280411188
:1003A00006E422E00008938701819C63A1653E85F5
:1003B000EFF0FFF60100A2600264410182800111AA
:1003C00022EC0010AA87AE8632872326F4FEB68779
:1003D0002324F4FEBA872322F4FE832784FE0547F4
:1003E000BB17F7008127FD371B870700832744FED3
:1003F000FD3781278326C4FEBBD7F6408127F98FBE
:1004000081273E85626405618280011106EC22E845
:100410000010232604FE31A813054006EF00A0615A
:10042000938781819C633E85EFF09FF1AA87232605
:10043000F4FE8327C4FE858B8127F9DF85473E853F
:10044000E260426405618280011106EC22E800103E
:10045000930700082326F4FE29A82945EF00A05D94
:10046000938781819C633E85EFF09FEDAA872326C9
:10047000F4FE8327C4FE93F707088127F9FF854719
:100480003E85E260426405618280411106E422E01B
:100490000008938701829C63B70500063E85EFF054
:1004A0001FE8938701849C6399453E85EFF03FE701
:1004B00097570000938707B29863B70708009385A2
:1004C000B7073A85EFF0BFE5EFF01FF885473E85A7
:1004D000A260026441018280411106E422E000082A
:1004E000938701829C63B70500303E85EFF03FE3C0
:1004F000938701849C63930500033E85EFF03FE200
:1005000097570000938707AD9863B7070800938556
:10051000B7073A85EFF0BFE0EFF01FF385473E8560
:10052000A260026441018280797106F422F0001811
:10053000AA872E87232EF4FCBA87232CF4FC83276A
:1005400084FD2546E1453E85EFF07FE7AA87232617
:10055000F4FE832784FD0546A1453E85EFF03FE686
:10056000AA872324F4FE0327C4FD8327C4FED98F62
:100570002322F4FE832784FE9B9787012324F4FE25
:10058000938701829C63032744FEBA853E85EFF082
:100590001FD9938781829C63032784FEBA853E8599
:1005A000EFF0FFD7938701849C6381453E85EFF090
:1005B0001FD7975700009387E7A19863B7072800D4
:1005C0009385B7073A85EFF09FD55145EF00A046D8
:1005D000EFF09FE785473E85A270027445618280F7
:1005E000797106F422F00018AA87AE863287232E8E
:1005F000F4FCB687232CF4FCBA87232AF4FC832767
:1006000084FD9BD787001B8707008327C4FDD98FF4
:1006100081272326F4FE832784FD9B97870181276A
:100620001B870700832744FD9BD787008127D98F2D
:1006300081272324F4FE832744FD9B9787012322EF
:10064000F4FE832644FE032784FE8327C4FE3A86F5
:10065000BE85174500001305659BEF003024938786
:1006600001829C630327C4FEBA853E85EFF03FCB31
:10067000938781829C63032784FEBA853E85EFF0D1
:100680001FCA938701839C63032744FEBA853E8576
:10069000EFF0FFC8938701849C6381453E85EFF0AE
:1006A0001FC8975700009387E7929863B7074800E1
:1006B0009385B7073A85EFF09FC65145EF00A03705
:1006C000EFF09FD8EF00601D0100A2700274456139
:1006D0008280011106EC22E80010AA872E872326CB
:1006E000F4FEBA872324F4FEEFF03FDA032784FEFA
:1006F0008327C4FE3A86BE8537050012EFF05FEE11
:10070000EF00A0190100E260426405618280797106
:1007100006F422F00018AA872E87232EF4FCBA874D
:10072000232CF4FC832784FD0546A1453E85EFF08C
:100730001FC9AA872324F4FE832784FE9B97870181
:100740002324F4FE938701829863832784FD9BD73B
:1007500087009B8607008327C4FDD58F81278127CB
:10076000BE853A85EFF0BFBB93878182986383276C
:1007700084FD9B9787018127BE853A85EFF03FBABC
:10078000938701849C6381453E85EFF05FB9EFF06C
:100790001FBF975700009387E7839863B707302000
:1007A0009385B7073A85EFF09FB71305007DEF00FB
:1007B0008028EFF09FC5AA8799C7938701849C631F
:1007C0009C432326F4FE8327C4FE3E85A270027458
:1007D00045618280797106F422F00018AA87232EE1
:1007E000F4FC8327C4FDBE853705000CEFF03FF213
:1007F000AA872326F4FE8327C4FE3E85A2700274D6
:1008000045618280797106F422F00018AA87232EB0
:10081000F4FC938701829C630327C4FDBA853E855F
:10082000EFF0FFAF938701849C630327C4FDBA8573
:100830003E85EFF0DFAEEFF09FB49747000093875F
:1008400067799863B70708209385B7073A85EFF073
:100850001FADEFF09FBBAA8799C7938701849C6364
:100860009C432326F4FE8327C4FE3E85A2700274B7
:1008700045618280011106EC22E80010AA87232638
:10088000F4FE8327C4FEBE85370500DCEFF0DFC928
:100890000100E260426405618280011106EC22E8F9
:1008A00000108D472326F4FE0DA037050005EFF05C
:1008B0007FF5AA872326F4FE8327C4FEBE8517355D
:1008C00000001305A576EF00607D8327C4FE8D8BA5
:1008D0008127E1FF81473E85E260426405618280B5
:1008E000011106EC22E80010EFF03FBA9387018275
:1008F0009C63B705009F3E85EFF07FA2938701843C
:100900009C63B705009F3E85EFF07FA1EFF03FA706
:10091000974700009387076C9863B707081893857B
:10092000B7073A85EFF0BF9FEFF03FAEAA8799C7B0
:10093000938701849C639C432326F4FE8327C4FE93
:100940004546A1453E85EFF09FA7AA872324F4FEE4
:100950008327C4FE0546C1453E85EFF05FA6AA8702
:100960002322F4FE832784FEBE851735000013057D
:10097000E56DEF00A072832744FEBE8517350000A9
:100980001305C56DEF00807185473E85E2604264C6
:100990000561828000000000117101001300000059
:1009A00006E40AE80EEC12F016F41AF81EFCA2E0B7
:1009B000A6E4AAE8AEECB2F0B6F4BAF8BEFC42E1A6
:1009C00046E54AE94EED52F156F55AF95EFDE2E18F
:1009D000E6E5EAE9EEEDF2F1F6F5FAF9FEFD73254A
:1009E0002034F32510340A86EF0080567310153436
:1009F000A2604261E2610272A2724273E273066413
:100A0000A6644665E6650676A6764677E6770A68C2
:100A1000AA684A69EA690A7AAA7A4A7BEA7B0E6C72
:100A2000AE6C4E6DEE6D0E7EAE7E4E7FEE7F116132
:100A3000730020300000797122F40018AA87232E59
:100A4000F4FC232604FE01008327C4FE1B87170045
:100A50002326E4FE0327C4FD0127E3E7E7FE0100A8
:100A60000100227445618280797122F40018233CD0
:100A7000A4FC033784FD9307803EB307F7022334B9
:100A8000F4FE29A89307803E2330F4FE010083374B
:100A900004FE1387F7FF2330E4FEF5FB833784FE63
:100AA0001387F7FF2334E4FEF1FF010001002274F5
:100AB00045618280797106F422F00018AA87232EFE
:100AC000F4FC85472326F4FE232404FE05A0032717
:100AD000C4FEBA879B972700B99F9B9717002326D0
:100AE000F4FE832784FE85272324F4FE032784FE57
:100AF0008327C4FD01278127E36BF7FC8327C4FE0E
:100B00003E85EF30001DAA873E85A27002744561C4
:100B10008280797122F40018233CA4FCAE87232A3A
:100B2000F4FC232604FE832744FDFD372324F4FE32
:100B300099A88327C4FE033784FDBA9783C70700AB
:100B4000A303F4FE832784FE033784FD3E978327A7
:100B5000C4FE833684FDB697034707002380E70071
:100B6000832784FE033784FDBA97034774FE2380EE
:100B7000E7008327C4FE85272326F4FE832784FE0F
:100B8000FD372324F4FE0327C4FE832784FE0127B8
:100B90008127E340F7FA0100010022744561828059
:100BA000797106F422F00018AA872338B4FC328742
:100BB000232EF4FCBA87232CF4FC232604FE81A008
:100BC0000327C4FDA947BB67F702812713F7F70F77
:100BD0008367C4FE833604FDB6971B0707031377AC
:100BE000F70F2380E7008327C4FE85272326F4FE22
:100BF0000327C4FDA947BB47F702232EF4FC832734
:100C0000C4FD8127D5FF39A88367C4FE033704FDDF
:100C1000BA97130700032380E7008327C4FE8527C4
:100C20002326F4FE0327C4FE832784FD01278127A2
:100C3000E36CF7FC8327C4FEBE85033504FDEFF0AB
:100C40005FED8367C4FE033704FDBA972380070076
:100C50008327C4FE3E85A2700274456182805D7167
:100C600086E4A2E08008232EA4FA2338B4FAB287DF
:100C7000232CF4FA232604FE233004FC233404FC42
:100C8000233804FC232C04FC231E04FC0325C4FB92
:100C9000EF30600F2A87973700009387A73F8C6358
:100CA0003A85EF206058AA873E85EF30A014AA87C6
:100CB000232EF4FA0325C4FBEF20106EAA87232409
:100CC000F4FE832784FE3E85EF20D073AA87BE857D
:100CD0000325C4FBEF207036AA872322F4FE2320CD
:100CE00004FE930500000325C4FBEF20F00DAA8746
:100CF00063DE0700832704FE033704FBBA9713075C
:100D0000D0022380E70085472320F4FE832784FE5A
:100D1000812785E3832704FE033704FBBA97130773
:100D200000032380E700832704FE85272320F4FEA9
:100D300099A0832784FE812763D80700832784FE38
:100D4000BB07F0402324F4FE130704FC832784FE32
:100D50000146BA853E85EFF0BFE4AA872326F4FE5C
:100D6000832704FE033704FBBA97130704FCBA85F4
:100D70003E85EF30E0180327C4FE832704FEB99FA9
:100D80002326F4FE832784FB8127D9C38327C4FE4F
:100D9000033704FBBA971307E0022380E7009305AB
:100DA0000000032544FEEF203002AA8763DA070023
:100DB000032744FEB7070080B98F2322F4FE39A031
:100DC00093050000032544FEEF20207A832784FB4F
:100DD0003E85EFF03FCEAA87BE85032544FEEF2077
:100DE000F006AA872322F4FE032544FEEF20D05A02
:100DF000AA879B8607008327C4FE8507033704FB69
:100E0000BA97032784FB3A86BE853685EFF05FD913
:100E10000100A660066461618280797122F4001885
:100E2000233CA4FC2338B4FC833704FD2334F4FEB4
:100E300029A8833704FD2334F4FE0100833784FEA0
:100E40001387F7FF2334E4FEF5FB833784FD138714
:100E5000F7FF233CE4FCF1FF01000100227445612F
:100E60008280011106EC22E800102334A4FE8337AF
:100E700084FE9C433E86833584FE173500001305AF
:100E8000E51FEF00A021833784FE9C4382178193E6
:100E90003E85E260426405618280011106EC22E831
:100EA00000102334A4FE2330B4FE833704FE1B87D6
:100EB0000700833784FE98C3833784FE9C433E86B5
:100EC000833584FE173500001305451BEF00001D18
:100ED0000100E260426405618280797106F422F0CB
:100EE0000018AA87232EF4FC173500001305051BF4
:100EF000EF00E0130327C4FDB707008093C7F7FF97
:100F0000F98F2326F4FE8327C4FEBE851735000023
:100F10001305C51AEF008018173500001305851B4F
:100F2000EF00E0108327C4FE3E85A2700274456185
:100F30008280011106EC22E800102334A4FE233045
:100F4000B4FE173500001305651AEF00400E01A02E
:100F5000797106F422F00018233CA4FC2338B4FC79
:100F6000232604FE232404FE173500001305051A6A
:100F7000EF00E00BA145173500001305A51AEF009F
:100F8000E0119307F0032324F4FE832784FE054732
:100F9000BB17F70081273E87833784FDF98FB9C3DC
:100FA000833784FD81273E85EFF03FF3AA87232610
:100FB000F4FE033604FD833584FD17350000130568
:100FC000E517EF000009173701001307A75E8367D5
:100FD000C4FE8E07BA979C63833504FD033584FDF8
:100FE00082970DA8033604FD833584FD1735000074
:100FF00013054517EF00E005173701001307876356
:10100000833784FD8E07BA979C63833504FD0335CF
:1010100084FD82971735000013054517EF00200166
:10102000833704FD3E85A270027445618280597148
:1010300022F40018233CA4FC0CE410E814EC18F093
:101040001CF423380403233C14030100227465615B
:101050008280597106F422F00018233CA4FC0CE4B1
:1010600010E814EC18F01CF423380403233C140398
:10107000930704042338F4FC833704FD938787FC2B
:101080002334F4FE833784FEBE85033584FDEF00F0
:10109000A01E0100A270027465618280597122F461
:1010A0000018233CA4FC0CE410E814EC18F01CF429
:1010B00023380403233C14030100227465618280F9
:1010C000597106F422F00018233CA4FC0CE410E84B
:1010D00014EC18F01CF423380403233C1403930786
:1010E00004042338F4FC833704FD938787FC2334FE
:1010F000F4FE833784FEBE85033584FDEF00C01700
:101100000100A270027465618280597106F422F0B8
:101110000018233CA4FC0CE410E814EC18F01CF4B8
:1011200023380403233C1403930704042338F4FCFA
:10113000833704FD938787FC2334F4FE833784FED2
:10114000BE85033584FDEF0020130100A2700274F8
:1011500065618280597106F422F00018233CA4FCDA
:101160000CE410E814EC18F01CF423380403233CBE
:101170001403930704042338F4FC833704FD938796
:1011800087FC2334F4FE833784FEBE85033584FD5B
:10119000EF00800E173500001305C500EFF07FEB60
:1011A00001A0697106F622F2001A233CA4ECAE8776
:1011B000232AF4EC232604FE232404FE836744ED53
:1011C000033784EDB377F7021B8707008327C4FE3C
:1011D0008A07930604FFB69723ACE7EE836744EDD6
:1011E000033784ED6360F702836744ED033784EDD2
:1011F000B357F702233CF4EC8327C4FE852723264C
:10120000F4FE6DBF01008327C4FE85272326F4FE6C
:10121000B1A08327C4FE8A07130704FFBA9783A7E8
:1012200087EF3E87A54763F7E70093077005232400
:10123000F4FE29A0930700032324F4FE8327C4FEB1
:101240008A07130704FFBA9783A787EF032784FE53
:10125000B99F812781273E85EF00204A8327C4FE5E
:101260001B87F7FF2326E4FEE345F0FA01000100A7
:10127000B270127455618280197186FCA2F8A6F4CE
:10128000CAF000012334A4F82330B4F89307000017
:101290002324F4FC233C04F8233004FA233404FA16
:1012A000232804FA231A04FA19A8638A0436268527
:1012B000EF00A044833784F885072334F4F883379C
:1012C00084F883C707009B84070026879307500292
:1012D000E31DF7FC833784F885072334F4F883375C
:1012E00084F82330F4FC232A04FC232604FC8337EF
:1012F00084F8138717002334E4F883C707009B841E
:1013000007002687930750026305F72E2687930769
:1013100050026344F72E26879307800763CFE72C9C
:10132000268793073006634AF72C9B86D4F91B87E0
:101330000600D54763E3E72C939706028193139742
:10134000270097370000938767E7BA979C431B876E
:10135000070097370000938767E6BA97828783274D
:1013600044FD8527232AF4FC85472326F4FC79AC29
:10137000833704F8138787002330E4F89C433E85C5
:10138000EF00A03761A4833704F813878700233068
:10139000E4F803B90700631B0900173900001309BB
:1013A00069E129A02685EF0040350509834709003A
:1013B0009B840700E5F899ACA947232EF4FA83270C
:1013C00044FD1B870700854763DCE700833704F88B
:1013D000138787002330E4F89C63233CF4FC1DA8AA
:1013E000832744FD1B8707008547631CF70083376D
:1013F00004F8138787002330E4F89C63233CF4FC53
:1014000011A8833704F8138787002330E4F89C433E
:10141000233CF4FC833784FD63DC07001305D00212
:10142000EF00A02D833784FDB307F040233CF4FC8C
:101430008327C4FBBE85033584FDEFF09FD6F9A258
:10144000833704F8138787002330E4F89C633E85D4
:10145000EF20501AAA872324F4FC930784F9194635
:10146000BE85032584FCEFF08FFF232804FC05A82C
:10147000832704FD130704FEBA9783C787FB8127E0
:101480003E85EF008027832704FD1B870700F54773
:1014900063C0E702832704FD85272328F4FC832704
:1014A00004FD130704FEBA9783C787FBF1F3B9AABB
:1014B0000100A9AAA947232EF4FA832744FD1B871C
:1014C0000700854763DCE700833704F8138787004C
:1014D0002330E4F89C63233CF4FC15A8832744FDE7
:1014E000812799CB833704F8138787002330E4F8EA
:1014F0009C63233CF4FC21A8833704F813878700FE
:101500002330E4F89C4382178193233CF4FC832727
:10151000C4FBBE85033584FDEFF0BFC8C5A8A14755
:10152000232EF4FA832744FD1B870700854763DCDD
:10153000E700833704F8138787002330E4F89C63BF
:10154000233CF4FC15A8832744FD812799CB8337DE
:1015500004F8138787002330E4F89C63233CF4FCF1
:1015600021A8833704F8138787002330E4F89C43CD
:1015700082178193233CF4FC8327C4FBBE8503358B
:1015800084FDEFF01FC259A0C147232EF4FA832730
:1015900044FD1B870700854763DCE700833704F8B9
:1015A000138787002330E4F89C63233CF4FC15A8E0
:1015B000832744FD812799CB833704F8138787005D
:1015C0002330E4F89C63233CF4FC21A8833704F81F
:1015D000138787002330E4F89C4382178193233CD0
:1015E000F4FC8327C4FBBE85033584FDEFF07FBB8D
:1015F00031A82685EF00601011A813055002EF00F6
:10160000C00F833704FC2334F4F801008327C4FCA3
:10161000812781C7232604FCD9B901004DB10100FF
:10162000E6704674A674067909618280597106F4E1
:1016300022F00018233CA4FC0CE410E814EC18F091
:101640001CF423380403233C1403930704042338B5
:10165000F4FC833704FD938787FC2334F4FE83373F
:1016600084FEBE85033584FDEFF01FC181473E85B2
:10167000A270027465618280011122EC00102326A1
:1016800004FE05A88327C4FE9B87371181279B97FB
:1016900087008127BE86173701001307A70183271C
:1016A000C4FE8E07BA9794E38327C4FE85272326BA
:1016B000F4FE8327C4FE8127E356F0FC01000100FD
:1016C000626405618280411122E4000801009737BD
:1016D0000100938727FE9C6383C7C7008127918BF6
:1016E0008127F5D7973701009387C7FC9C639C47F8
:1016F00081273E85226441018280011122EC001085
:10170000AA872326F4FE010097370100938787FA02
:101710009C6383C7C7008127898B8127F5F797379B
:101720000100938727F99C630327C4FED8C3814730
:101730003E85626405618280797122F40018233C41
:10174000A4FCAE87232AF4FC232604FE832744FD51
:101750009B9747008127373731011B0707D0BB57BD
:10176000F7022326F4FE8327C4FE13970703419351
:10177000833784FD2390E700010022744561828055
:10178000011122EC00102334A4FEAE87A303F4FE63
:10179000833784FE034774FE238CE70001006264F4
:1017A00005618280011122EC00102334A4FEAE8773
:1017B000A303F4FE833784FE034774FE2380E7020D
:1017C0000100626405618280011122EC0010233463
:1017D000A4FEAE87A303F4FE0100833784FE83C713
:1017E000C7008127898B8127EDFB834774FE1B8708
:1017F0000700833784FED8C381473E856264056154
:101800008280797106F422F00018233CA4FC23386E
:10181000B4FC232604FE8327C4FE1B87170023265F
:10182000E4FE82178193033704FDBA9783C707004C
:10183000A305F4FE8347B4FEBE85033584FDEFF0B7
:10184000BFF88347B4FE93F7F70FF1F781473E8562
:10185000A270027445618280797122F40018233CE1
:10186000A4FC2338B4FCA30704FE0100833784FDE5
:1018700083C7C7008127918B8127EDDB833784FDE8
:101880009C47A307F4FE833704FD0347F4FE23803F
:10189000E70085473E85227445618280797106F4B0
:1018A00022F00018233CA4FC2338B4FC232604FEB9
:1018B000A30504FE0100833784FD83C7C700812789
:1018C000918B8127EDDB833784FD9C47A305F4FED4
:1018D0008327C4FE1B8717002326E4FE821781930B
:1018E000033704FDBA970347B4FE2380E70083471C
:1018F000B4FE81273E85EFF05FE08347B4FE13F727
:10190000F70FB547E318F7FA8327C4FE1B871700C4
:101910002326E4FE82178193033704FDBA972947F3
:101920002380E7008327C4FE1B8717002326E4FEDD
:1019300082178193033704FDBA972380070083271A
:10194000C4FE93F7F70F3E85A27002744561828052
:10195000797122F40018233CA4FC31A0833784FD64
:101960009C47A307F4FE833784FD83C7C700812704
:10197000918B8127E5F70100010022744561828087
:10198000011106EC22E80010232604FE973701001F
:10199000938747D29C6383C7C700812793F70710BB
:1019A0008127BDCBB1A8973701009387A7D09C634F
:1019B0009C472326F4FE938781899C4381271B87BC
:1019C00017009B0607001387818914C30327C4FEF1
:1019D0001377F70F97B600009386C66A8217819334
:1019E000B6972380E700973701009387A7CC9C63C5
:1019F0000327C4FE1377F70FBA853E85EFF0DFDCCF
:101A000097370100938707CB9C6383C7C700812763
:101A1000918B8127C9FB91A297370100938787C9D2
:101A20009C6383C7C7008127A18B8127DDCFC14578
:101A300037050D02EFF06FC6B7070D02138587005B
:101A4000EFF02FC2AA8793E70701BE85B7070D0203
:101A500013858700EFF06FC4B1A897370100938713
:101A600067C59C639C472326F4FE938781899C432A
:101A700081271B8717009B0607001387818914C3E2
:101A80000327C4FE1377F70F97B600009386865F8F
:101A900082178193B6972380E700973701009387D9
:101AA00067C19C630327C4FE1377F70FBA853E8591
:101AB000EFF09FD1973701009387C7BF9C6383C71F
:101AC000C7008127918B8127C9FBB7070D021385BA
:101AD0008700EFF00FB9AA87BD9BBE85B7070D023F
:101AE00013858700EFF06FBB8DA8973701009387B0
:101AF00067BC9C6383C7C7008127918B8127B1CFC7
:101B000097370100938707BB9C639C472326F4FE0D
:101B1000938781899C4381271B8717009B060700B9
:101B20001387818914C30327C4FE1377F70F97B671
:101B300000009386265582178193B6972380E7008D
:101B400097370100938707B79C630327C4FE137779
:101B5000F70FBA853E85EFF03FC781473E85E260CB
:101B6000426405618280011106EC22E80010232600
:101B700004FE973701009387E7B39C6783C7C700CC
:101B8000812793F707108127BDCBB1A897370100B4
:101B9000938747B29C679C472326F4FE9387018A6C
:101BA0009C4381271B8717009B0607001387018A28
:101BB00014C30327C4FE1377F70F97E6000093863C
:101BC00066BD82178193B6972380E700973701009F
:101BD000938747AE9C670327C4FE1377F70FBA8538
:101BE0003E85EFF07FBE973701009387A7AC9C67D7
:101BF00083C7C7008127918B8127C9FB91A29737A3
:101C00000100938727AB9C6783C7C7008127A18BFF
:101C10008127DDCFC14537050D02EFF00FA8B707CB
:101C20000D0213858700EFF0CFA3AA8793E7070182
:101C3000BE85B7070D0213858700EFF00FA6B1A888
:101C400097370100938707A79C679C472326F4FEDC
:101C50009387018A9C4381271B8717009B060700F7
:101C60001387018A14C30327C4FE1377F70F97E67F
:101C70000000938626B282178193B6972380E700EF
:101C800097370100938707A39C670327C4FE137748
:101C9000F70FBA853E85EFF03FB397370100938782
:101CA00067A19C6783C7C7008127918B8127C9FBE8
:101CB000B7070D0213858700EFF0AF9AAA87BD9B87
:101CC000BE85B7070D0213858700EFF00F9D8DA825
:101CD000973701009387079E9C6783C7C7008127BA
:101CE000918B8127B1CF973701009387A79C9C6781
:101CF0009C472326F4FE9387018A9C4381271B87F8
:101D000017009B0607001387018A14C30327C4FE2C
:101D10001377F70F97E600009386C6A78217819383
:101D2000B6972380E700973701009387A7989C67B1
:101D30000327C4FE1377F70FBA853E85EFF0DFA8BF
:101D400081473E85E260426405618280011106ECB4
:101D500022E80010232604FE973701009387879519
:101D60009C6B83C7C700812793F707108127BDCBE2
:101D7000B1A8973701009387E7939C6B9C47232674
:101D8000F4FE9387818A9C4381271B8717009B065B
:101D900007001387818A14C30327C4FE1377F70F44
:101DA000970601009386061082178193B6972380C9
:101DB000E700973701009387E78F9C6B0327C4FEEA
:101DC0001377F70FBA853E85EFF01FA09737010014
:101DD0009387478E9C6B83C7C7008127918B812790
:101DE000C9FB91A2973701009387C78C9C6B83C76F
:101DF000C7008127A18B8127DDCFC14537050D02A3
:101E0000EFF0AF89B7070D0213858700EFF06F85FC
:101E1000AA8793E70701BE85B7070D0213858700E0
:101E2000EFF0AF87B1A8973701009387A7889C6B25
:101E30009C472326F4FE9387818A9C4381271B8736
:101E400017009B0607001387818A14C30327C4FE6B
:101E50001377F70F970601009386C60482178193C4
:101E6000B6972380E700973701009387A7849C6B80
:101E70000327C4FE1377F70FBA853E85EFF0DF9492
:101E800097370100938707839C6B83C7C70081271F
:101E9000918B8127C9FBB7070D0213858700EFE0FF
:101EA0005FFCAA87BD9BBE85B7070D02138587001F
:101EB000EFE0BFFE8DA8972701009387A77F9C6B5B
:101EC00083C7C7008127918B8127B1CF9727010056
:101ED0009387477E9C6B9C472326F4FE9387818AD9
:101EE0009C4381271B8717009B0607001387818A65
:101EF00014C30327C4FE1377F70F970601009386D8
:101F000066FA82178193B6972380E700972701002E
:101F10009387477A9C6B0327C4FE1377F70FBA8524
:101F20003E85EFF07F8A81473E85E260426405612D
:101F30008280411122E40008010022644101828074
:101F4000411106E422E00008172500001305852C46
:101F5000EFF0EF8D972701009387C76517F7FFFF15
:101F6000130767FD98E3972701009387A76417F786
:101F7000FFFF130747FC98E79727010093878763C4
:101F800017F7FFFF130727FB98EB972701009387AD
:101F9000676217F7FFFF130707FA98EF972701000B
:101FA0009387476117F7FFFF1307E7F898F3972721
:101FB00001009387276017F7FFFF1307C7F798F70C
:101FC000972701009387075F17F7FFFF1307A7F60F
:101FD00098FB972701009387E75D17070000130719
:101FE000872D98FF972701009387C75C17F7FFFF9E
:101FF000130767F4B8E3972701009387A75B17F7E8
:10200000FFFF130747F3B8E7972701009387875A25
:1020100017F7FFFF130727F2B8EB97270100938705
:1020200067591707000013072743B8EF97270100E8
:102030009387475817F7FFFF1307E7EFB8F3972782
:1020400001009387275717F7FFFF1307C7EEB8F76D
:10205000972701009387075617F7FFFF1307A7ED90
:10206000B8FB972701009387E75417F7FFFF130783
:1020700087ECB8FF972701009387C75B17F7FFFF2F
:10208000130767EB98E3972701009387A75A17F781
:10209000FFFF130747EA98E79727010093878759BF
:1020A00017F7FFFF130727E998EB9727010093879E
:1020B000675817F7FFFF130707E898EF9727010006
:1020C0009387475717F7FFFF1307E7E698F397271C
:1020D00001009387275617F7FFFF1307C7E598F707
:1020E000972701009387075517F7FFFF1307A7E40A
:1020F00098FB972701009387E75317F7FFFF130714
:1021000087E398FF972701009387C75217F7FFFFD0
:10211000130767E2B8E3972701009387A75117F7E2
:10212000FFFF130747E1B8E7972701009387875020
:1021300017F7FFFF130727E0B8EB972701009387F6
:10214000674F17F7FFFF130707DFB8EF9727010067
:102150009387474E17F7FFFF1307E7DDB8F397277D
:1021600001009387274D17F7FFFF1307C7DCB8F768
:10217000972701009387074C17F7FFFF1307A7DB8B
:10218000B8FB972701009387E74A17F7FFFF13076C
:1021900087DAB8FF1725000013054509EFE03FE98E
:1021A0000100A260026441018280411106E422E044
:1021B0000008EFF06FCC172500001305A508EFE02D
:1021C0001FE7EFF0FFD7EFE04F831725000013055F
:1021D0006508EFE0DFE50100A26002644101828052
:1021E000411122E40008B7C70002E1179C433E8575
:1021F000226441018280411122E40008B7C7000235
:10220000F1179C4381273E852264410182800111A0
:1022100006EC22E826E40010EFF0FFFDAA878127F4
:102220008217819393940702EFF09FFBAA8781277F
:1022300082178193C58F3E85E2604264A264056186
:102240008280011106EC22E800102334A4FE172539
:10225000000013052501EFE09FDD938701889C6353
:102260009463938781889C63033784FE369798E351
:10227000938781889C639C63BE85172500001305A6
:102280006500EFE0BFE1938701889C639C63BE8596
:102290001725000013058500EFE05FE0172500001B
:1022A00013054501EFE0BFD80100E260426405611B
:1022B0008280011106EC22E800102334A4FE2330B2
:1022C000B4FE172500001305E500EFE05FD6938705
:1022D00081889C637D5798E31725000013058501CD
:1022E000EFE03FD7172500001305C502EFE03FD40C
:1022F0000100E260426405618280797106F422F097
:102300000018AA87232EF4FC172500001305850268
:10231000EFE0FFD1B707010CC1072334F4FE833788
:1023200084FE0327C4FD98C317270100130707394C
:102330008367C4FD9207BA97094798C7172701001A
:102340001307C7378367C4FD9207BA97DC47852711
:102350001B87070097260100938646368367C4FDD6
:102360009207B697D8C71727010013072735836749
:10237000C4FD9207BA9798478327C4FD3A86BE8565
:1023800017250000130505FDEFE05FD117270100B9
:102390001307C7328367C4FD9207BA978C43172788
:1023A00001001307A7318367C4FD9207BA979047CE
:1023B00017270100130787308367C4FD9207BA9778
:1023C000D443172701001307672F8367C4FD9207C3
:1023D000BA97DC473E8717250000130525FAEFE082
:1023E000FFCB172500001305E5FEEFE05FC40100F9
:1023F000A270027445618280011106EC22E800108F
:10240000233404FE172500001305C5FEEFE03FC28C
:10241000B707010CC1072334F4FE833784FE9C43C5
:102420002322F4FE832744FE033684FEBE8517254F
:1024300000001305A5FEEFE07FC617250000130579
:10244000E500EFE0DFBE832744FE3E85E2604264A4
:1024500005618280797106F422F00018233CA4FC07
:102460002338B4FC1725000013054500EFE03FBCFE
:10247000EFF09FF8AA872326F4FE8327C4FEBE85CB
:102480001725000013058500EFE05FC18327C4FE18
:10249000812781CB8327C4FE1B870700E94763FBA5
:1024A000E7008327C4FEBE8517250000130505003D
:1024B000EFE05FCA17270100130747208367C4FEB8
:1024C0009207BA97054798C7172701001307071FF8
:1024D0008367C4FE9207BA9798478327C4FE3A865B
:1024E000BE85172500001305E5E6EFE03FBB172783
:1024F00001001307A7368367C4FE8E07BA97986357
:102500008327C4FE3E8502978327C4FE3E85EFF0F5
:10251000DFDE8327C4FEBE8517250000130585FC7A
:10252000EFE0DFB7172500001305C5FDEFE03FB072
:102530000100A270027445618280011106EC22E85C
:102540000010AA872326F4FE17250000130585FD39
:10255000EFE0FFAD8327C4FE8127A1C38327C4FE1C
:102560001B870700994763EAE70219478327C4FEE0
:10257000BB07F740812781273E85EF00E074AA87DB
:1025800089EF19478327C4FEBB07F74081278127BE
:10259000930500083E85EF00C06A8327C4FEBE8510
:1025A00017250000130585F9EFE0BFAA17250000E5
:1025B0001305C5FAEFE0BFA70100E26042640561C0
:1025C0008280397106FC22F88000AA872326F4FC59
:1025D000A30704FE172500001305C5F9EFE03FA58A
:1025E0008327C4FCBE85172500001305A5FAEFE07C
:1025F000FFAA0966B705000C17250000130505FBA7
:10260000EFE0DFA98327C4FC9BD73700812713970E
:1026100007020193B727000CBA972330F4FE8337E3
:1026200004FE83C70700A307F4FE8347F4FE812757
:102630003E86833504FE172500001305A5FAEFE05A
:10264000FFA58327C4FC9D8B81270547BB17F70097
:1026500081271B9787011B5787418307F4FED98F7A
:102660009B9787019BD78741A30FF4FC833704FE18
:102670000347F4FD2380E7008347F4FD8127BE85EF
:1026800017250000130505F9EFE05FA117250000ED
:10269000130545FAEFE0BF990100E2704274216131
:1026A0008280797106F422F00018AA87232EF4FCA8
:1026B000233404FEA30304FE17250000130585F947
:1026C000EFE0FF968327C4FDBE85172500001305A4
:1026D00065ECEFE0BF9C8327C4FDBE860966B705A5
:1026E000000C172500001305E5F8EFE03F9B83275A
:1026F000C4FD9BD737008127139707020193B727A3
:10270000000CBA972334F4FE833784FE83C7070096
:10271000A303F4FE834774FE81273E86833584FE3F
:1027200017250000130585F9EFE05F978327C4FDA7
:102730009D8B81270547BB17F70081279B97870152
:102740009BD7874193C7F7FF1B9787011B5787418B
:10275000830774FEF98F9B9787019BD787412303DB
:10276000F4FE833784FE034764FE2380E7001727C7
:1027700001001307A7F48367C4FD9207BA9723A447
:10278000070017270100130767F38367C4FD92074B
:10279000BA9798478327C4FD3A86BE85172500005F
:1027A000130545BBEFE09F8F17250000130585F447
:1027B000EFE0FF870100A2700274456182807971A9
:1027C00006F422F00018AA87232EF4FC1725000037
:1027D000130545F4EFE0BF85233404FEB707010C71
:1027E0002334F4FE833784FE0327C4FD98C3833764
:1027F00084FE9C43BE8517250000130525F4EFE0F9
:10280000FF8917250000130565F5EFE05F820100E1
:10281000A270027445618280797106F422F000187A
:10282000AA872E87232EF4FCBA87232CF4FC832757
:10283000C4FDBE8517250000130545F4EFE02FFF0A
:10284000832784FD9B972700812713970702019315
:10285000B707000CBA972334F4FE833584FE17259E
:102860000000130525F4EFE07F83833784FE9C434B
:10287000BE8517250000130565F5EFE03F8283371D
:1028800084FE0327C4FD98C3833784FE9C43BE8522
:1028900017250000130505F7EFE05F8017250000FE
:1028A000130545F9EFE0AFF80100A270027445612D
:1028B0008280797106F422F00018AA87232EF4FC96
:1028C00017250000130505F9EFE06FF637050D0237
:1028D000EFE02FD9AA872326F4FE8327C4FEBE8506
:1028E00017250000130585F9EFE04FFB8327C4FD92
:1028F000E53781270547BB17F700812793C7F7FF07
:1029000081271B8707008327C4FEF98F8127821741
:102910008193BE8537050D02EFE02FD837050D02F4
:10292000EFE02FD4AA87BE8517250000130585F791
:10293000EFE0CFF6172500001305C5F9EFE02FEF04
:102940000100A270027445618280011106EC22E848
:102950000010232604FE172500001305A5F9EFE05B
:102960000FED972701009387E7C4170700001307AF
:10297000A7AEB8EFAD4517250000130525F9EFE028
:10298000EFF197270100938767D323A407009727C8
:1029900001009387A7D223A0070097270100938700
:1029A000E7D123A2070097270100938727D123A609
:1029B000070085472326F4FEC5A817270100130743
:1029C000E7CF8367C4FE9207BA9723A407001727AF
:1029D00001001307A7CE8367C4FE9207BA970327A7
:1029E000C4FE98C317270100130747CD8367C4FEB1
:1029F0009207BA970947D8C317270100130707CCD6
:102A00008367C4FE9207BA9723A607001725000024
:102A10001305C5F2EFE08FE88327C4FE3E85EFF093
:102A20005FC817270100130767E38367C4FE8E079B
:102A3000BA9717070000130787B098E38327C4FEEF
:102A4000BE850945EFF05FDD17270100130707C7B3
:102A50008367C4FE9207BA978C43172701001307B8
:102A6000E7C58367C4FE9207BA979047172701000E
:102A70001307C7C48367C4FE9207BA97D4431727C6
:102A800001001307A7C38367C4FE9207BA97DC4708
:102A90003E87172500001305E5EDEFE02FE08327C3
:102AA000C4FE85272326F4FE8327C4FE1B87070068
:102AB000E547E3F4E7F00545EFF07FD01725000088
:102AC000130545F4EFE0AFD60100E2604264056112
:102AD0008280011106EC22E80010AA872326F4FE6A
:102AE00017250000130585F3EFE06FD48327C4FE9C
:102AF0001B870700994763FEE7008327C4FE1B87F7
:102B00000700D54763E7E7008327C4FE3E85EFF063
:102B10005FDA8327C4FE3E85EFF0BFAA17250000C9
:102B20001305C5F1EFE0AFD00100E260426405613A
:102B30008280797106F422F00018AA872E87232E4E
:102B4000F4FCBA87232CF4FC832784FD1B87070041
:102B5000C167634DF700C1679385F7FF1725000034
:102B60001305C5EFEFE06FDA814791A08327C4FD1D
:102B70009B87073081279B97870081272334F4FEAA
:102B8000832784FD1B9707011B570741833784FE6A
:102B90002390E700032784FD8327C4FD3A86BE8582
:102BA00017250000130505EFEFE0AFCA85473E8506
:102BB000A270027445618280797106F422F00018D7
:102BC000AA872E87232EF4FCBA87232CF4FC8327B4
:102BD00084FD1B870700C167634DF700C1679385BC
:102BE000F7FF172500001305E5EDEFE00FD2814751
:102BF000A1A08327C4FD9B87073081279B9787006F
:102C00008127912781272334F4FE832784FD1B9796
:102C100007011B570741833784FE2390E7000327F2
:102C200084FD8327C4FD3A86BE8517250000130561
:102C300065ECEFE00FC285473E85A27002744561E6
:102C40008280797106F422F00018AA872E87232E3D
:102C5000F4FCBA87232CF4FC832784FD1B87070030
:102C60009307F00F63DCE7009305F00F17250000D2
:102C7000130545EBEFE06FC9814791A08327C4FDA1
:102C80009B87073081279B9787008127A127812772
:102C90002334F4FE832784FD13F7F70F833784FE74
:102CA0002380E700032784FD8327C4FD3A86BE8581
:102CB00017250000130585EAEFE0AFB985473E858B
:102CC000A270027445618280797106F422F00018C6
:102CD000AA87232EF4FC8327C4FD9B870730812716
:102CE0009B9787008127A12781272334F4FE833710
:102CF00084FE83C7070093F7F70F8127A18B232258
:102D0000F4FE832744FE9BD737408127BE851725D5
:102D10000000130525E8EFE0CFB3832744FE9BD7DF
:102D2000374081273E8785476314F700854711A008
:102D300081473E85A270027445618280797106F4F4
:102D400022F00018AA872E87232EF4FCBA87232CA2
:102D5000F4FC832784FD1B870700C167634DF700E0
:102D6000C1679385F7FF17250000130525E5EFE000
:102D7000CFB9814705A88327C4FD9B8707308127EA
:102D80009B9787008127B12781272334F4FE83276F
:102D900084FD1B9707011B570741833784FE23904F
:102DA000E70085473E85A27002744561828001116B
:102DB00006EC22E80010AA872326F4FE8327C4FE2F
:102DC00081453E85EFF0FFD68327C4FE81453E85D1
:102DD000EFF09FDE8327C4FE81453E85EFF07FE65E
:102DE0008327C4FE81453E85EFF05FF58327C4FE4F
:102DF000BE85172500001305E5DFEFE08FA5010074
:102E0000E260426405618280011106EC22E8001054
:102E1000232604FE19A88327C4FE3E85EFF03FF960
:102E20008327C4FE85272326F4FE8327C4FE1B8741
:102E300007009147E3D1E7FE17250000130585DE63
:102E4000EFE02FA10100E2604264056182807971A8
:102E500006F422F00018AA87232EF4FC232604FE91
:102E60008327C4FD81279DE717250000130585DE14
:102E7000EFE02F9E8327C4FE89272326F4FE8327B5
:102E8000C4FE91272326F4FE8327C4FEC1272326F0
:102E9000F4FE99A88327C4FD1B8707008547631E9E
:102EA000F70017250000130565DDEFE08F9A8327F3
:102EB000C4FE91272326F4FE05A88327C4FD1B87A3
:102EC000070089476312F70217250000130505DE86
:102ED000EFE02F988327C4FE91272326F4FE832753
:102EE000C4FEA1272326F4FE8327C4FE3E85A270DC
:102EF000027445618280797106F422F00018AA8775
:102F00002E87232EF4FCBA87232CF4FC832784FD20
:102F10003E85EFF0DFF3AA872326F4FE0327C4FEE5
:102F20008327C4FDBA853E85EFF0BFD1AA8791CB38
:102F30008327C4FDBE85172500001305A5DAEFE041
:102F40004F910327C4FE8327C4FDBA853E85EFF069
:102F50005FCFAA8791EB8327C4FDBE8517250000AC
:102F60001305C5DAEFE06F9A0100A27002744561A3
:102F70008280797122F40018AA872E87232EF4FC10
:102F8000BA87A30DF4FC8327C4FD9B8707308127F4
:102F90009B9787008127A12781272334F4FE83474D
:102FA000B4FD93F7F70F99C7833784FE8507233461
:102FB000F4FE09A8833784FE91C7833784FEFD178A
:102FC0002334F4FE0100227445618280011106EC75
:102FD00022E80010AA872E872326F4FEBA8723242E
:102FE000F4FE032784FE8327C4FEBA853E85EFF0F6
:102FF000FFD4AA8799E7172500001305A5D3EFE0B2
:10300000CF900100E260426405618280011106EC0C
:1030100022E80010AA872E872326F4FEBA872324ED
:10302000F4FE032784FE8327C4FEBA853E85EFF0B5
:10303000BFB8AA8799E717250000130525D2EFE04E
:10304000CF8C0100E260426405618280011106ECD0
:1030500022E80010AA872E872326F4FEBA872324AD
:10306000F4FE032784FE8327C4FEBA853E85EFF075
:103070005FACAA8799E7172500001305A5D0EFE0FC
:10308000CF880100E260426405618280797106F4B4
:1030900022F00018AA872326F4FEAE872324F4FE2C
:1030A000B2872322F4FEB6872320F4FEBA87A30F4B
:1030B000F4FC032744FE8327C4FEBA853E85EFF067
:1030C000FFF8032704FE8327C4FEBA853E85EFF090
:1030D000FFF3032784FE8327C4FEBA853E85EFF005
:1030E000FFEE0347F4FD8327C4FEBA853E85EFF06B
:1030F0005FE88327C4FEBE8517250000130505CBB6
:10310000EFD03FF50100A270027445618280011189
:1031100006EC22E80010AA872326F4FE8327C4FECB
:1031200081453E85EFF0FFB18327C4FEBE8517259C
:1031300000001305A5C9EFD0DFF10100E260426491
:1031400005618280397106FC22F88000AA87232657
:10315000F4FC8327C4FC9B87073081279B9787005B
:1031600081272334F4FE8327C4FC9B870730812703
:103170009B9787008127912781272330F4FE83279F
:10318000C4FC9B87073081279B9787008127A12755
:103190008127233CF4FC8327C4FC9B8707308127CD
:1031A0009B9787008127B12781272338F4FC833739
:1031B00084FE83D70700C217C1938127BE851725D8
:1031C0000000130525C3EFD0DFE8833704FE83D763
:1031D0000700C217C1938127BE851725000013057C
:1031E000E5C3EFD01FE7833784FD83C7070093F75C
:1031F000F70F8127BE85172500001305A5C4EFD062
:103200005FE5833704FD83D70700C217C193812789
:10321000BE8517250000130565C5EFD09FE30100AB
:10322000E27042742161828001117D581357C800F9
:1032300013D6450322E813544503B377A70026E4C9
:103240006D8F1374F47F1376F67F06EC4AE0935487
:10325000F503FD918E070E07BB06C440639CB412B4
:103260009B8506006354B00821EA05CF9B85F6FFD5
:103270008DE5BA9713978700635507020504130776
:10328000F07F6304E4281307F01F5A1793F6170022
:103290007D178583F98FD58F29A09306F07F63145E
:1032A000D40213F777006303072613F7F70091465C
:1032B000630ED724910799AC9306F07FE303D4FE05
:1032C0008546DE16558F130680038546634EB6008D
:1032D000930600043356B700BB85B6403317B700DA
:1032E0003337E000B366E600B69769B7B1CD39E091
:1032F0006384072063950501BA973284A5BF9305BF
:10330000F07F6300B62093C6F6FF81261305800385
:103310008545634ED5009305000433D5D700BB86A1
:10332000D540B397D700B337F000B365F500B38746
:10333000E500E1B79305F07F6305B61C8545DE1512
:10334000BB06D040CD8FD9B79306140013F6E67FA5
:1033500015EA19EC6385071A29D7BA9713978700DE
:10336000E35107F45E187D18B3F70701054415BF54
:10337000638907186300071285478144DA1713042D
:10338000F07F69A21306F07F638FC616BA97858314
:10339000368401BF1B850600635FA00429E611D3B4
:1033A0001B85F6FF11E9998F13978700E35B07EE02
:1033B000A60713D99700DDA89306F07FE303D4EEA8
:1033C000130680038546634EA60093060004335619
:1033D000A7003B85A6403317A7003337E000B3664C
:1033E000E600958FD1B79306F07FE30CD4EA8546CB
:1033F000DE16558FF1B725C129E4638E07146317D4
:103400000501B307F7403284AE8479BF1305F07F1E
:103410006307A61493C6F6FF8126130880030545AB
:10342000634ED8001305000433D8D700BB06D5403F
:10343000B397D700B337F0003365F800B307A74060
:10344000D9B71305F07F630CA61005455E15BB06C2
:10345000D040C98FD9B79306140093F6E67F95EE56
:1034600005E491E7BA8775EB8147814445A0E30AFB
:1034700007E2B386E74013968600B307F740634E32
:10348000060CFDD2B68731BDE39607EEE30607EEE4
:10349000BA87AE841304F07F29B53389E7409316C9
:1034A000890063DF06023309F740AE844A85EF00E6
:1034B00030229B0785FF3319F90063C887023B85DB
:1034C0008740052513040004B357A9003B05A44019
:1034D0003319A90033392001B3E727010144D1B3DF
:1034E000E31609FC8147014449B71D8CFD57DE17DF
:1034F000FD17B377F90075B3BA8732845DB3BA8725
:103500004DB3BA8741BF1304F07F814713978700FB
:10351000635B070005041307F07F6306E4047D572F
:103520005E177D17F98F1307F07F8D836316E40014
:1035300081C78547CE1781441374F47FB2075214B4
:10354000B183E260C18F42641395F4030269A264FF
:103550005D8D05618280BA873284AE8499B3BA8763
:103560001304F07FDDBF81477DBFB7078000FD17E3
:10357000B3F6A7001B567501ED8F1BD87501821697
:103580001B57F50182171376F60F1305F00F819282
:1035900081931378F80F9BD5F5016314A6000545B8
:1035A0009DE21305F00F6314A800054589EF05455A
:1035B000631B06016399F6006306B70009E633351D
:1035C000D000828001458280B7078000FD17B3F6E6
:1035D000A7001B567501ED8F1BD775018216821748
:1035E0001376F60F1308F00F81921B55F5018193A6
:1035F0001377F70F9BD5F50163150601B9C209458D
:10360000828063130701E5FF1DEE11E38DCB81CAB4
:103610006314B5006359C7000DC17D5582807D5587
:1036200091C52E8582806354E60065D98280E3E5EA
:10363000D7FEE3ECF6FE0145828005458280E5DE9B
:10364000E1BFE302C7FC69F7E1DBD9B7397126F4C2
:103650009B54750122F84AF04EEC52E8131495027F
:1036600006FC56E493F4F40F2E8A935994021B59E6
:10367000F501A5C89307F00F6384F408139439008B
:10368000B7070004B369F400938414F8814A9B5788
:103690007A0113149A0293F7F70F25901B5AFA0137
:1036A000B5CB1307F00F6385E7080E043707000456
:1036B000598C938717F80147BE9493972A00D98FA6
:1036C000FD1739463345490193861400636BF606AE
:1036D000171600001306C67B8A07B2979C43B29761
:1036E0008287638609024E85EF00807E9B07050076
:1036F0009304A0FA1B05B5FDB399A9009D8C79B779
:103700009304F00F894AE38409F88D4A49B781444C
:10371000854AB5BF05C42285EF00807B1B070500E5
:103720009307A0FA1B05B5FD3314A400998F61B768
:103730009307F00F094749D00D47BDBF81470547A3
:10374000A5BF338489029357A4011A14333480002F
:10375000139747025D8C635707069357140005883B
:103760005D8C9387F6076351F0061377740019C7D1
:103770001377F40011466303C700110413174402C2
:1037800063580700B70700F8FD177D8C938706087C
:103790001307E00F0D80635FF70601449307F00FF6
:1037A00095A84A854E8456878947E308F7FE8D47DA
:1037B000630DF7048547E316F7FA0144814799A89A
:1037C0005285DDB7A68671BF05471D8FED47E3C65D
:1037D000E7FE93060004B357E4003B87E64033144A
:1037E000E400333480005D8C9377740099C793773D
:1037F000F40011476383E7001104931754020D800E
:10380000E3DE07FA0144854731A0370440009307FF
:10381000F00F014593F7F70F26149B97770125903A
:103820005D8C1B15F501E270418D4274A274027922
:10383000E269426AA26A21618280B7068000FD16B1
:10384000B3F7A600ED8E01119BD8750182171B58A6
:103850007501821622E84AE081931378F80F81926D
:1038600093F8F80F06EC26E41306F00F42891B5478
:10387000F5018E0746879BD5F5018E066393C80038
:1038800099E293C515003B0618411B050600639D90
:103890008512635DA00663920804638C06281B05ED
:1038A000F6FF0DE5B69742879396570263D2060E50
:1038B00005079306F00F6306D728B70600FCFD1630
:1038C00013F61700F58F8583D18FD9A01307F00F5A
:1038D000631CE8001307F00F65A81307F00FE30B54
:1038E000E8FE37070004D98E6D460547634EA600F3
:1038F0001307000433D6A6003B05A740B396A600E5
:10390000B336D0003367D600BA9771BF31CD631399
:10391000080463820722FD556314B500B69769B7A2
:103920009305F00F638BB8201346F6FF01266D4513
:103930008545634EC5009305000433D5C7003B861B
:10394000C540B397C700B337F000B365F500B38740
:10395000D50099BF9305F00F6381B81EB705000429
:103960003B06C040CD8FE1B7130618001377E60F72
:1039700021E7631A08026380071C99CAB6979396D9
:10398000570263D70600370700FC7D17F98F0547FC
:1039900093F677006388061A93F6F700114663835F
:1039A000C61A910745A2638A07188DD60144B70746
:1039B00000021307F00F79A21307F00F6301E61856
:1039C000B69785833287E9B76357A006639B0804DF
:1039D0004287DDDE1B05F6FF01ED958F93965702BA
:1039E000E3D806FAB7040004FD14FD8C3A89F5A863
:1039F0001306F00F1307F00FE30CC8F86D460547E8
:103A0000634EA6001307000433D6A6003B05A7406B
:103A1000B396A600B336D0003367D600998F42879D
:103A200075BF1306F00F1307F00FE303C8F637074F
:103A30000004D98EE1B739CD63140804ADC77D58B1
:103A400063160501B387F6402E8449BF1305F00FB6
:103A50006381A8081346F6FF01266D480545634EAD
:103A6000C8001305000433D8C7003B06C540B39710
:103A7000C700B337F0003365F800B387A640E9B755
:103A80001305F00F6387A804370500043B06C04008
:103A9000C98FE1B7130718001377E70F15EF631607
:103AA000080281E785C2B68719A8E38306EE33864C
:103AB000D7401315560263560500B387F6402E848F
:103AC000C1BD79E681470144B5A8E39007EEE38FD5
:103AD00006ECB6872E84FDBBB384D74013975402FF
:103AE000635E0702B384F6402E842685EF00403ED5
:103AF0001B07B5FDB394E400634627033B0527414C
:103B0000052513070004B3D7A4003B05A740B394D1
:103B1000A400B3349000C58F01479DBDF9F48147DF
:103B2000014755B7B70700FCFD173307E940E58F9C
:103B300085B54287B1BDB687A1BDB68761BB130706
:103B4000F00F81479396570263DB06000507930643
:103B5000F00F6301D704B70600FCFD16F58F93063E
:103B6000F00F8D836316D70081C7B707400001446B
:103B7000E2601B15F4011377F70F4264A6171B17B9
:103B80007701A593D98FA26402695D8D056182805A
:103B9000B287FDBB8147E1B7370680009307F6FF88
:103BA0009B567501E98F93F6F60F9305E007812781
:103BB0001B57F50163F6D5049305D00963F8D500CA
:103BC000370500801345F5FF399D82801395070264
:103BD0000191518D130650099B870600637AD60028
:103BE0009B87A7F63B15F50009CF3B05A0408280D7
:103BF00093066009BB87F6403355F5000125EDB704
:103C000001458280011106EC22E826E44AE055CD08
:103C10009B0405001359F50363540500BB04904051
:103C20001394040201902285EF00802A9307E00B91
:103C3000899F130760096346F7026386E7003B0527
:103C4000F7403314A40026149B97770125905D8CD0
:103C50001B15F901E260418D4264A26402690561AD
:103C6000828013079009635FF7009306900B1B8710
:103C700077F69D9E3BD7E400BB94D400B33490000C
:103C8000D98C81241307900982141D8F819063576A
:103C9000E000130790091D9FB394E400370400FC73
:103CA0007D1413F77400658C11C7BD8811476383B9
:103CB000E40011041317540263570700370700FC90
:103CC0007D17798C85070D80BDBF0144814701496F
:103CD0009DBF011106EC22E826E45DC11314050224
:103CE0000190AA842285EF00A01E9307E00B899F14
:103CF000130760096342F7026386E7003B05F7405C
:103D00003314A400261425901B957701E260418DA1
:103D10004264A2640561828013079009635FF70023
:103D20001305900B1D9D3B95A4001B8777F633353B
:103D3000A000BBD4E400C98C81241307900982142D
:103D40001D8F81906357E000130790091D9FB39466
:103D5000E400370400FC7D1413F77400658C11C770
:103D6000BD8811476383E40011041317540263579D
:103D70000700370700FC7D17798C85070D8059B740
:103D80000144814741B79B577501011193F7F70F24
:103D900022E826E4131495029B54F50113851700BD
:103DA00006EC1375E50F259005C1138507387604D9
:103DB000320452153180498C1395F403E260418D31
:103DC0004264A2640561828091EF7DD02285EF007C
:103DD00020109B0755FF3314F4009307903A3B855E
:103DE000A740F9B71305F07F61D485477604CE1755
:103DF0005D8C7DBF135745031377F77F13061700BC
:103E00009317C5001376E67F93D6C7007D91A583EF
:103E100029C6130707C81306E00F634CE60463487E
:103E2000E002A556634BD7088546DE16D58FF946C6
:103E3000999E1B072702B3D6D700B397E700B33785
:103E4000F000D58F014793F677009DC68DA89A168E
:103E5000F583B336D000D58FFDB701E7B337F00057
:103E6000DDB71307F00F89CBF583E19BB70600029E
:103E7000DDB781471307F00F9396570263DB060007
:103E800005079306F00F6303D704B70600FCFD1681
:103E9000F58F9306F00F8D836316D70081C7B707A0
:103EA000400001451377F70FA6171B177701A5935D
:103EB000D98F1B15F5015D8D82808547014793F6EB
:103EC000F7001146E38AC6FA91077DB78147D1B75B
:103ED000930780033357F5001377F70F19E3E117C2
:103EE000F5FB130700041D8F3355F50097170000ED
:103EF0009387C7FD3E95034505003B05A74082809B
:103F0000B367B5009D8BBDEF98619716000083B62F
:103F1000E60B7D56B377D700B697D98FD58F639CC4
:103F2000C7062A867D5818E29865A1052106B37751
:103F3000D700B697D98FD58FE38707FF83C70500D2
:103F400003C7150083C625002300F6009DCBA30000
:103F5000E60005CB83C735002301D6009DC203C709
:103F60004500A301F60091CF83C755002302E60068
:103F700009CB03C76500A302F60081C72303E6004F
:103F800009EF8280AA8703C7050085078505A38FEF
:103F9000E7FE75FB82802A8655B7A3030600828060
:103FA0000A45726173696E672E2E2E0A00000000AA
:103FB0000A457261736520636F6D706C6574652E60
:103FC0000A000000000000000A57726974696E67F9
:103FD0002E2E2E00000000002E0000000000000029
:103FE0000A0A577269746520636F6D706C65746539
:103FF0002E0A0000000000000A506C656173652005
:1040000072657365742E0A000A20636D643A202578
:10401000783B64313A2025783B2064323A20257879
:104020000000000000000000666C6173682073747B
:104030006174757320726567697374657220766147
:104040006C2025780A000000446576696365204984
:1040500044202578200A00006578747261637465D5
:104060006420646576696365206964202578200A88
:10407000000000000000000061646472203D202503
:10408000782064617461203D2025780A00000000DA
:1040900048AFBC9AF2D77A3E0A657874726163744D
:1040A0005F69655F636F646520656E7465726564E2
:1040B0000A00000000000000657863657074696F95
:1040C0006E20636F6465203D2025780A00000000A3
:1040D000657874726163745F69655F636F6465209E
:1040E0006578697465640A000A64656661756C7454
:1040F0005F68616E646C657220656E74657265647C
:104100000A000000000000000A68616E646C655FD0
:104110007472617020656E74657265640A000000D7
:1041200073697A656F662875696E74707472292078
:10413000203D202564200A000A496E74657272755C
:1041400070743A206D6361757365203D2025782C6D
:1041500020657063203D2025780A000000000000E3
:104160000A457863657074696F6E3A206D63617596
:104170007365203D2025782C20657063203D202527
:10418000780A00000000000068616E646C655F746E
:10419000726170206578697465640A00000000002F
:1041A0000A2070616E6963200A00000000000000B0
:1041B000286E756C6C290000B8D1FFFF00D2FFFF9C
:1041C00042D4FFFF88D2FFFF42D4FFFF42D4FFFF5B
:1041D00042D4FFFF42D4FFFF42D4FFFFA6D1FFFF2E
:1041E00042D4FFFF42D4FFFF66D3FFFF42D4FFFF5C
:1041F00042D4FFFF42D4FFFFCED1FFFF42D4FFFFE6
:10420000FCD2FFFF42D4FFFF42D4FFFFD0D3FFFF19
:10421000747261705F696E697420656E7465726531
:1042200064200A2000000000747261705F696E698A
:104230007420657869746564200A2000000000001D
:10424000696E697420656E7465726564200A200069
:10425000696E6974206578697465640A00000000FD
:104260000A636F6E6669677572655F636F756E74FA
:10427000657220656E74657265640A000000000056
:104280006D74696D65636D702076616C7565203D38
:104290002025640A000000006D74696D6520766158
:1042A0006C7565203D2025640A00000000000000B8
:1042B0000A636F6E6669677572655F636F756E74AA
:1042C0006572206578697465640A0000000000006A
:1042D0000A6D6163685F636C696E745F68616E64C8
:1042E0006C657220656E74657265640A000000007A
:1042F00054696D657220696E746572727570742090
:1043000068616E646C6564200A00000000000000B3
:104310006D6163685F636C696E745F68616E646C25
:104320006572206578697465640A00000000000009
:104330000A696E746572727570745F636F6D706C0C
:1043400065746520656E74657265640A000000001E
:10435000696E746572727570742069642025642CAE
:10436000207374617465206368616E67656420748E
:104370006F2025640A000000696E746572727570A2
:1043800074206964203D202578200A2072657365B9
:104390007420746F2064656661756C742076616C3E
:1043A000756573207374617465203D20257820093C
:1043B0000920200A207072696F72697479203D208B
:1043C00025780A20636F756E74203D2025780A00D9
:1043D000696E746572727570745F636F6D706C6511
:1043E0007465206578697465640A00000000000047
:1043F0000A696E746572727570745F636C61696D61
:104400005F7265717565737420656E74657265643D
:104410000A00000000000000696E74657272757019
:1044200074206964205B25785D20636C61696D652B
:104430006420206174206164647265737320257840
:104440000A00000000000000696E746572727570E9
:10445000745F636C61696D5F7265717565737420FB
:104460006578697465640A000A6D6163685F706CE1
:1044700069635F68616E646C657220656E746572F5
:1044800065640A0000000000696E746572727570E0
:104490007420696420636C61696D6564203D20252A
:1044A000780A000000000000466174616C206572AB
:1044B000726F722C20696E746572727570742069E7
:1044C00064205B25785D20636C61696D656420699B
:1044D000732077726F6E670A000000000000000012
:1044E000696E746572727570742069642025642029
:1044F000636F6D706C657465200A00000000000039
:104500000A6D6163685F706C69635F68616E646C9B
:104510006572206578697465640A00000000000017
:104520000A6973725F64656661756C7420656E7488
:10453000657265640A000000696E74657272757058
:1045400074205B25645D2073657276696365640A17
:1045500000000000000000000A6973725F64656675
:1045600061756C74206578697465640A00000000E8
:104570000A696E746572727570745F656E61626CE3
:104580006520656E7465726564200A000000000095
:10459000696E746572727570745F6964203D202560
:1045A000780A000000000000504C4943204241536B
:1045B000452041444452455353203D2025782C202A
:1045C000504C494320454E41424C45204F464653AE
:1045D0004554203D2025780A00000000000000001E
:1045E000696E746572727570745F656E61626C6518
:1045F0005F61646472203D20257820637572726566
:104600006E745F76616C7565203D202578200A0008
:1046100076616C756520726561643A206E65775FBE
:1046200076616C7565203D2025780A000000000049
:104630000A696E746572727570745F656E61626C22
:104640006520657869746564200A00000000000038
:104650000A696E746572727570745F646973616201
:104660006C6520656E7465726564200A0000000048
:10467000504C494320424153452041444452455304
:1046800053203D2025782C20504C494320454E4155
:10469000424C45204F4646534554203D2025782026
:1046A000696E746572727570745F6964203D20254F
:1046B000780A000000000000696E746572727570FF
:1046C000745F64697361626C655F61646472203DEC
:1046D0002025782063757272656E745F76616C75E3
:1046E00065203D202578200A000000000000000021
:1046F000696E746572727570745F64697361626CFF
:1047000065206578697465640A0000000000000097
:104710000A73657420696E746572727570745F7463
:1047200068726573686F6C6420656E746572656429
:104730000A00000000000000706C69632074687259
:104740006573686F6C642073657420746F202564D2
:104750000A0000000000000073657420696E746533
:1047600072727570745F7468726573686F6C6420C0
:104770006578697465640A000A2073657420696E3F
:1047800074657272757074207072696F7269747971
:1047900020656E74657265642025780A000000004B
:1047A000696E746572727570745F7072696F726928
:1047B00074795F61646472657373203D2025780AA3
:1047C000000000000000000063757272656E7420C6
:1047D0006461746120617420696E746572727570B1
:1047E000745F7072696F726974795F616464726515
:1047F0007373203D2025780A0000000000000000AF
:10480000206E6577206461746120617420696E7424
:104810006572727570745F7072696F726974795FB6
:1048200061646472657373203D2025780A0000007E
:1048300073657420696E746572727570742070721D
:10484000696F72697479206578697465640A00001B
:104850000A636F6E66696775726520696E7465724A
:10486000727570742070696E20656E74657265640F
:104870000A000000000000004750494F2044495200
:10488000454354494F4E20524547495354455220C1
:1048900056414C5545203D2025780A000000000077
:1048A00044617461207772697474656E20746F203E
:1048B0004750494F20444952454354494F4E2043A5
:1048C00054524C20524547203D2025780A000000D4
:1048D000636F6E66696775726520696E7465727262
:1048E0007570742070696E206578697465640A005B
:1048F0000A706C69635F696E697420656E746572B5
:1049000065640A000000000041737369676E6564A6
:10491000206D6163685F706C69635F68616E646C71
:10492000657220746F2074726170206964203A206F
:1049300025640A00000000000A2A2A2A2A2A2A2AB4
:104940002A2A2A2A2A2A2A2A2A2A2A2A2A2A2A2AC7
:104950002A2A2A2A2A2A2A2A2A2A2A2A2A2A2A2AB7
:104960002A2A2A2A2A2A2A2A2A00000000000000CD
:104970000A696E74657272757074206964203D20D6
:104980002578200A726573657420746F20646566EB
:1049900061756C742076616C7565732073746174D5
:1049A00065203D2025782009090920200A707269B8
:1049B0006F72697479203D2025780A636F756E7473
:1049C000203D2025780A2009090920200A2A2A2AC0
:1049D0002A2A2A2A2A2A2A2A2A2A2A2A2A2A2A2A37
:1049E0002A2A2A2A2A2A2A2A2A2A2A2A2A2A2A2A27
:1049F0002A2A2A2A2A2A2A2A2A2A2A2A2A2A00006B
:104A0000706C69635F696E69742065786974656448
:104A1000200A0000000000000A636F6E6669677577
:104A200072655F696E7465727275707420656E74FC
:104A300065726564200A0000636F6E66696775724F
:104A4000655F696E746572727570742065786974DB
:104A50006564200A000000000A506572696F6420D6
:104A600052656769737465722056616C756520685C
:104A70006967686572207468616E206D6178207660
:104A8000616C756520282578290000000000000071
:104A90000A20506572696F64205265676973746596
:104AA00072206F66206D6F64756C65206E756D6227
:104AB00065722025642073657420746F202578004A
:104AC0000A4475747920526567697374657220565B
:104AD000616C756520686967686572207468616ECD
:104AE000206D61782076616C756520282578290015
:104AF0000A20447574792052656769737465722061
:104B00006F66206D6F64756C65206E756D62657281
:104B10002025642073657420746F202578000000C0
:104B20000A436F6E74726F6C2052656769737465A7
:104B3000722056616C7565206869676865722074BB
:104B400068616E206D61782076616C75652028251E
:104B500078290000000000000A20436F6E74726F15
:104B60006C205265676973746572206F66206D6F83
:104B700064756C65206E756D6265722025642073A6
:104B8000657420746F20257800000000000000008C
:104B90000A2052756E6E696E6720696E20636F6EB3
:104BA00074696E756F7573206D6F646528312F3071
:104BB000293A2025640000000A436C6F636B205281
:104BC000656769737465722056616C7565206869E4
:104BD00067686572207468616E206D617820766107
:104BE0006C75652028257829000000000000000071
:104BF0000A20416C6C20726567697374657273205A
:104C00006F66206D6F64756C65206E756D62657280
:104C100020256420636C65617265640000000000FB
:104C20000A20416C6C205265676973746572207646
:104C3000616C756573206F6620616C6C206D6F64AC
:104C4000756C657320636C656172656400000000BB
:104C50000A2043757272656E74204D6F64756C65C1
:104C60002069732073657420746F2050574D206D38
:104C70006F646500000000000A2043757272656E63
:104C800074204D6F64756C652069732073657420A2
:104C9000746F2074696D6572206F6E6365206F6E2E
:104CA0006C79206D6F6465000A2043757272656EC1
:104CB00074204D6F64756C65206973207365742072
:104CC000746F2074696D657220636F6E74696E75A0
:104CD0006F7573206D6F64650000000000000000B8
:104CE0000A2050574D206D6F64756C65206E756D90
:104CF00062657220256420686173206265656E209C
:104D0000656E7465726564000A2050574D206D6FA2
:104D100064756C65206E756D626572202564206E09
:104D20006F7420656E746572656400000000000099
:104D30000A204572726F7220696E207365747469FF
:104D40006E6720636C6F636B20726567697374654F
:104D500072000000000000000A204572726F72208D
:104D6000696E2073657474696E6720647574792048
:104D700072656769737465720000000000000000CE
:104D80000A204572726F7220696E207365747469AF
:104D90006E6720706572696F6420726567697374ED
:104DA00065720000000000000A50574D2025642065
:104DB00073756363657366756C6C7920636F6E667B
:104DC00069677572656400000A2050574D206D6F49
:104DD00064756C65206E756D62657220256420684F
:104DE0006173206265656E2073746F707065640016
:104DF0000A5468652076616C7565206F6620706561
:104E000072696F6420726567697374657220697373
:104E100020257800000000000A5468652076616C47
:104E20007565206F66206475747920726567697393
:104E3000746572206973202578000000000000006E
:104E40000A5468652076616C7565206F6620636F13
:104E50006E74726F6C207265676973746572206915
:104E600073202578000000000A5468652076616C84
:104E70007565206F6620636C6F636B207265676970
:104E80007374657220697320257800001CE9FFFFA8
:104E90001CE9FFFF34E9FFFF18E9FFFF18E9FFFFF6
:104EA0007EE9FFFF34E9FFFF18E9FFFF7EE9FFFF1E
:104EB00018E9FFFF34E9FFFF16E9FFFF16E9FFFFDE
:104EC00016E9FFFF7EE9FFFF00010202030303036F
:104ED000040404040404040405050505050505058A
:104EE000050505050505050506060606060606066A
:104EF0000606060606060606060606060606060652
:104F00000606060606060606070707070707070739
:104F10000707070707070707070707070707070721
:104F20000707070707070707070707070707070711
:104F30000707070707070707070707070707070701
:104F400007070707070707070808080808080808E9
:104F500008080808080808080808080808080808D1
:104F600008080808080808080808080808080808C1
:104F700008080808080808080808080808080808B1
:104F800008080808080808080808080808080808A1
:104F90000808080808080808080808080808080891
:104FA0000808080808080808080808080808080881
:104FB0000808080808080808080808080808080871
:084FC0000808080808080808A9
:104FC8007F7F7F7F7F7F7F7F0000020000000000DF
:104FD80004000200000000000800020000000000B9
:104FE8000C00020000000000100002000000000099
:104FF8001400020000000000180002000000000079
:105008001C00020000000000200002000000000058
:105018002400020000000000280002000000000038
:1050280000FCFF870000000094A20084000000003C
:10503800284901800000000094A2008400000000BC
:10504800F8BF00020000000000400002000000005D
:1050780000200000970200009382020E73905230C5
:10508800AD4273B0023085629B82828873B0423031
:10509800B72F000C137E0E00130E0E002380CF01D5
:1050A800A380CF012381CF01A381CF01B70F000CCB
:1050B800137E0E002380CF01A380CF012381CF016F
:1050C800A381CF01814001418141014281420143D5
:1050D8008143014481440145814501468146014798
:1050E80081470148814801498149014A814A014B68
:1050F800814B014C814C014D814D014E814E014F38
:10510800814F975100009381A1E81385018697C5C7
:105118000000938525F8014610C16374B500110598
:10512800E5BF1385018493858185014610C16374A9
:10513800B5001105E5BF170100081301E1B317C257
:105148000000130252F9137202FC6F10803701A09D
:1051580000000000117101001300000006E40AE8D5
:105168000EEC12F016F41AF81EFCA2E0A6E4AAE867
:10517800AEECB2F0B6F4BAF8BEFC42E146E54AE954
:105188004EED52F156F55AF95EFDE2E1E6E5EAE93F
:10519800EEEDF2F1F6F5FAF9FEFD73252034F3256C
:1051A80010340A86EF00400C73101534A260426177
:1051B800E2610272A2724273E2730664A6644665F3
:1051C800E6650676A6764677E6770A68AA684A69A3
:1051D800EA690A7AAA7A4A7BEA7B0E6CAE6C4E6D53
:1051E800EE6D0E7EAE7E4E7FEE7F11617300203035
:1051F8000000797106F422F00018AA87232EF4FC27
:10520800173500001305C561EF00E0130327C4FD3F
:10521800B707008093C7F7FFF98F2326F4FE83278B
:10522800C4FEBE851735000013058561EF008018A0
:105238001735000013054562EF00E0108327C4FE10
:105248003E85A270027445618280011106EC22E855
:1052580000102334A4FE2330B4FE173500001305D4
:105268002561EF00400E01A0797106F422F00018C4
:10527800233CA4FC2338B4FC232604FE232404FE88
:10528800173500001305C560EF00E00BA145173581
:10529800000013056561EF00E0119307F003232474
:1052A800F4FE832784FE0547BB17F70081273E8756
:1052B800833784FDF98FB9C3833784FD81273E8501
:1052C800EFF03FF3AA872326F4FE033604FD833567
:1052D80084FD173500001305A55EEF00000917C708
:1052E80000001307E7A38367C4FE8E07BA979C6381
:1052F800833504FD033584FD82970DA8033604FD2C
:10530800833584FD173500001305055EEF00E005C1
:1053180017C700001307C7A8833784FD8E07BA97FD
:105328009C63833504FD033584FD8297173500009F
:105338001305055EEF002001833704FD3E85A2704A
:10534800027445618280597122F40018233CA4FC40
:105358000CE410E814EC18F01CF423380403233C84
:1053680014030100227465618280597106F422F0E9
:105378000018233CA4FC0CE410E814EC18F01CF40E
:1053880023380403233C1403930704042338F4FC50
:10539800833704FD938787FC2334F4FE833784FE28
:1053A800BE85033584FDEF00A01E0100A2700274C3
:1053B80065618280597122F40018233CA4FC0CE436
:1053C80010E814EC18F01CF423380403233C1403ED
:1053D8000100227465618280597106F422F0001878
:1053E800233CA4FC0CE410E814EC18F01CF423385B
:1053F8000403233C1403930704042338F4FC833781
:1054080004FD938787FC2334F4FE833784FEBE852E
:10541800033584FDEF00C0170100A27002746561B6
:105428008280597106F422F00018233CA4FC0CE495
:1054380010E814EC18F01CF423380403233C14037C
:10544800930704042338F4FC833704FD938787FC0F
:105458002334F4FE833784FEBE85033584FDEF00D4
:1054680020130100A270027465618280597106F4EC
:1054780022F00018233CA4FC0CE410E814EC18F00B
:105488001CF423380403233C14039307040423382F
:10549800F4FC833704FD938787FC2334F4FE8337B9
:1054A80084FEBE85033584FDEF00800E17350000AD
:1054B80013058547EFF07FEB01A0697106F622F22C
:1054C800001A233CA4ECAE87232AF4EC232604FE1E
:1054D800232404FE836744ED033784EDB377F70292
:1054E8001B8707008327C4FE8A07930604FFB69725
:1054F80023ACE7EE836744ED033784ED6360F7027E
:10550800836744ED033784EDB357F702233CF4EC8B
:105518008327C4FE85272326F4FE6DBF0100832759
:10552800C4FE85272326F4FEB1A08327C4FE8A077C
:10553800130704FFBA9783A787EF3E87A54763F74A
:10554800E700930770052324F4FE29A093070003BE
:105558002324F4FE8327C4FE8A07130704FFBA979F
:1055680083A787EF032784FEB99F812781273E857C
:10557800EF00204A8327C4FE1B87F7FF2326E4FE9B
:10558800E345F0FA01000100B2701274556182809F
:10559800197186FCA2F8A6F4CAF000012334A4F815
:1055A8002330B4F8930700002324F4FC233C04F8C8
:1055B800233004FA233404FA232804FA231A04FAB9
:1055C80019A8638A04362685EF00A044833784F837
:1055D80085072334F4F8833784F883C707009B844E
:1055E8000700268793075002E31DF7FC833784F8EA
:1055F80085072334F4F8833784F82330F4FC232A0E
:1056080004FC232604FC833784F81387170023340B
:10561800E4F883C707009B84070026879307500296
:105628006305F72E2687930750026344F72E2687D3
:105638009307800763CFE72C268793073006634AD2
:10564800F72C9B86D4F91B870600D54763E3E72C24
:105658009397060281931397270097370000938743
:10566800272EBA979C431B8707009737000093871C
:10567800272DBA978287832744FD8527232AF4FCA0
:1056880085472326F4FC79AC833704F81387870011
:105698002330E4F89C433E85EF00A03761A48337AC
:1056A80004F8138787002330E4F803B90700631B65
:1056B8000900173900001309292829A02685EF00B9
:1056C80040350509834709009B840700E5F899AC34
:1056D800A947232EF4FA832744FD1B870700854733
:1056E80063DCE700833704F8138787002330E4F886
:1056F8009C63233CF4FC1DA8832744FD1B870700FB
:105708008547631CF700833704F813878700233025
:10571800E4F89C63233CF4FC11A8833704F813874E
:1057280087002330E4F89C43233CF4FC833784FD52
:1057380063DC07001305D002EF00A02D833784FD3A
:10574800B307F040233CF4FC8327C4FBBE85033534
:1057580084FDEFF09FD6F9A2833704F813878700FA
:105768002330E4F89C633E85EF205070AA872324F9
:10577800F4FC930784F91946BE85032584FCEF00E1
:10578800307A232804FC05A8832704FD130704FEA8
:10579800BA9783C787FB81273E85EF008027832739
:1057A80004FD1B870700F54763C0E702832704FD54
:1057B80085272328F4FC832704FD130704FEBA97E2
:1057C80083C787FBF1F3B9AA0100A9AAA947232E29
:1057D800F4FA832744FD1B870700854763DCE7004D
:1057E800833704F8138787002330E4F89C63233C4D
:1057F800F4FC15A8832744FD812799CB833704F847
:10580800138787002330E4F89C63233CF4FC21A829
:10581800833704F8138787002330E4F89C43821702
:105828008193233CF4FC8327C4FBBE85033584FDA8
:10583800EFF0BFC8C5A8A147232EF4FA832744FD7B
:105848001B870700854763DCE700833704F8138765
:1058580087002330E4F89C63233CF4FC15A88327D5
:1058680044FD812799CB833704F8138787002330B9
:10587800E4F89C63233CF4FC21A8833704F81387DD
:1058880087002330E4F89C4382178193233CF4FC7F
:105898008327C4FBBE85033584FDEFF01FC259A0E2
:1058A800C147232EF4FA832744FD1B870700854749
:1058B80063DCE700833704F8138787002330E4F8B4
:1058C8009C63233CF4FC15A8832744FD812799CBCE
:1058D800833704F8138787002330E4F89C63233C5C
:1058E800F4FC21A8833704F8138787002330E4F8F1
:1058F8009C4382178193233CF4FC8327C4FBBE8519
:10590800033584FDEFF07FBB31A82685EF006010DA
:1059180011A813055002EF00C00F833704FC23348D
:10592800F4F801008327C4FC812781C7232604FCDF
:10593800D9B901004DB10100E6704674A674067924
:1059480009618280597106F422F00018233CA4FCF6
:105958000CE410E814EC18F01CF423380403233C7E
:105968001403930704042338F4FC833704FD938756
:1059780087FC2334F4FE833784FEBE85033584FD1B
:10598800EFF01FC181473E85A27002746561828075
:10599800011122EC0010232604FE05A88327C4FE6B
:1059A8009B87371181279B9787008127BE8617B76A
:1059B80000001307E7468327C4FE8E07BA9794E3CF
:1059C8008327C4FE85272326F4FE8327C4FE812768
:1059D800E356F0FC01000100626405618280411118
:1059E80022E40008010097B70000938767439C638F
:1059F80083C7C7008127918B8127F5D797B7000008
:105A0800938707429C639C4781273E852264410116
:105A18008280011122EC0010AA872326F4FE0100DF
:105A280097B700009387C73F9C6383C7C700812748
:105A3800898B8127F5F797B700009387673E9C63AA
:105A48000327C4FED8C381473E856264056182800E
:105A5800797122F40018233CA4FCAE87232AF4FCB5
:105A6800232604FE832744FD9B9747008127373769
:105A780031011B0707D0BB57F7022326F4FE832703
:105A8800C4FE139707034193833784FD2390E700EF
:105A98000100227445618280011122EC0010233438
:105AA800A4FEAE87A303F4FE833784FE034774FE87
:105AB800238CE7000100626405618280011122ECF9
:105AC80000102334A4FEAE87A303F4FE833784FEBC
:105AD800034774FE2380E702010062640561828047
:105AE800011122EC00102334A4FEAE87A303F4FEB8
